:020000040000FA
:100000000C9463000C948B000C948B000C943303C1
:100010000C9433030C9433030C948B000C948B00DE
:100020000C948B000C948B000C948B000C948B0024
:100030000C948B000C948B000C948B000C948B0014
:100040000C9491020C948B000C9401030C94DB0231
:100050000C948B000C948B000C948B000C948B00F4
:100060000C948B000C948B0000000008000201002F
:100070000003040700000000000000000000000072
:1000800023002600290000000000240027002A0089
:1000900000000000250028002B00040404040404D0
:1000A0000404020202020202030303030303010227
:1000B00004081020408001020408102001020408F6
:1000C0001020F703520611241FBECFEFD8E0DEBF89
:1000D000CDBF11E0A0E0B1E0E2E0FDE002C005909C
:1000E0000D92A833B107D9F722E0A8E3B1E001C02F
:1000F0001D92A134B207E1F710E0C2E6D0E004C0DF
:100100002197FE010E946E06C136D107C9F70E94F1
:10011000E0040C9474060C9400003FB7F8948091AE
:10012000810190918201A0918301B091840126B553
:10013000A89B05C02F3F19F00196A11DB11D3FBF1F
:10014000BA2FA92F982F8827BC01CD01620F711DEE
:10015000811D911D42E0660F771F881F991F4A95E8
:10016000D1F70895AF92BF92CF92DF92EF92FF92B4
:100170000F931F93CF93DF936C017B018B01040FCF
:10018000151FEB015E01AE18BF08C017D10759F06B
:100190006991D601ED91FC910190F081E02DC601AD
:1001A0000995892B79F7C501DF91CF911F910F91A7
:1001B000FF90EF90DF90CF90BF90AF900895FC013B
:1001C000538D448D252F30E0842F90E0821B930BBC
:1001D000541710F0CF96089501970895FC01918D62
:1001E000828D981761F0A28DAE0FBF2FB11D5D9665
:1001F0008C91928D9F5F9F73928F90E008958FEF07
:100200009FEF0895FC01918D828D981731F0828DBA
:10021000E80FF11D858D90E008958FEF9FEF089511
:10022000FC01918D228D892F90E0805C9F4F821B75
:1002300091098F739927089585E891E00E94100134
:1002400021E0892B09F420E0822F089580E090E0DE
:10025000892B29F00E941C0181110C940000089543
:10026000FC01A48DA80FB92FB11DA35ABF4F2C912B
:10027000848D90E001968F739927848FA689B78922
:100280002C93A089B1898C91837080648C93938D19
:10029000848D981306C00288F389E02D80818F7DBC
:1002A00080830895EF92FF920F931F93CF93DF9374
:1002B000EC0181E0888F9B8D8C8D98131AC0E889A2
:1002C000F989808185FF15C09FB7F894EE89FF8971
:1002D0006083E889F98980818370806480839FBF0F
:1002E00081E090E0DF91CF911F910F91FF90EF900F
:1002F0000895F62E0B8D10E00F5F1F4F0F7311271F
:10030000E02E8C8D8E110CC00FB607FCFACFE88959
:10031000F989808185FFF5CFCE010E943001F1CFB0
:10032000EB8DEC0FFD2FF11DE35AFF4FF0829FB7CD
:10033000F8940B8FEA89FB8980818062CFCFCF93BD
:10034000DF93EC01888D8823B9F0AA89BB89E889FD
:10035000F9898C9185FD03C0808186FD0DC00FB6A3
:1003600007FCF7CF8C9185FFF2CF808185FFEDCF21
:10037000CE010E943001E9CFDF91CF910895209105
:100380007A0130917B012817390771F49091780137
:1003900080917901981741F0E0917801F0E0E85CF4
:1003A000FE4F808190E008958FEF9FEF08950895AC
:1003B000EF92FF920F931F93CF93DF93DC015C9634
:1003C000ED90FC905D97E114F10479F481E090E008
:1003D00013969C938E93129790E080E0DF91CF91DB
:1003E0001F910F91FF90EF9008955196ED91FC9120
:1003F000529750968C915097982F90950FB75E9684
:100400002C915E97122F127021FD6095F894208137
:10041000112319F1282B2083E7012197F1F728E018
:10042000462F50E0308160FF1AC0382B3083E7013F
:100430002197F1F7BA0175956795215089F7112336
:1004400081F08081892380830FBF5C968D919C9180
:100450000197F1F781E090E0C1CF2923DCCF392368
:10046000E5CF9081892BEFCF20917A0130917B01EC
:100470002817390761F4809179012091780190E083
:10048000805C9F4F821B91098F739927089590E09C
:1004900080E0089520917A0130917B012817390777
:1004A000B9F49091780180917901981789F0E091E1
:1004B0007801F0E0E85CFE4F80812091780130E027
:1004C0002F5F3F4F2F7333272093780190E00895DB
:1004D0008FEF9FEF089590E080E00895FB01019079
:1004E0000020E9F73197AF01461B570BDC01ED9176
:1004F000FC910280F381E02D09940F931F93CF9319
:10050000DF93EC010E946E028C0164E271E0CE0187
:100510000E946E02800F911FDF91CF911F910F916A
:1005200008951F920F920FB60F9211242F933F93AD
:100530008F939F93AF93BF9380917D0190917E01A4
:10054000A0917F01B091800130917C0123E0230FC5
:100550002D3758F50196A11DB11D20937C01809384
:100560007D0190937E01A0937F01B09380018091E3
:10057000810190918201A0918301B0918401019643
:10058000A11DB11D8093810190938201A0938301ED
:10059000B0938401BF91AF919F918F913F912F9123
:1005A0000F900FBE0F901F90189526E8230F02960C
:1005B000A11DB11DD2CF1F920F920FB60F92112421
:1005C0002F933F934F935F936F937F938F939F935B
:1005D000AF93BF93EF93FF9385E891E00E943001C2
:1005E000FF91EF91BF91AF919F918F917F916F910B
:1005F0005F914F913F912F910F900FBE0F901F90E1
:1006000018951F920F920FB60F9211242F938F936C
:100610009F93EF93FF93E0919501F0919601808174
:10062000E0919B01F0919C0182FD1BC09081809123
:100630009E018F5F8F7320919F01821741F0E0919F
:100640009E01F0E0EB57FE4F958F80939E01FF9146
:10065000EF919F918F912F910F900FBE0F901F9050
:1006600018958081F4CF1F920F920FB60F9211242C
:100670002F933F934F935F936F937F938F939F93AA
:10068000AF93BF93EF93FF93E0917A01F0917B01D9
:10069000309749F0A685B7858585968D91FF14C062
:1006A0009C918923A1F4FF91EF91BF91AF919F910C
:1006B0008F917F916F915F914F913F912F910F900B
:1006C0000FBE0F901F9018959C91892361F7A38905
:1006D000B4899C918589809589238C938689978993
:1006E0000197F1F7608D718DA685B785558538E046
:1006F00020E0CB010197F1F7822F90E09595879547
:10070000282F4C91452309F02068315091F7868DB0
:1007100081FD20958091790190E001968F73992752
:1007200030917801381799F0A0917901B0E0A85C78
:10073000BE4F2C9380937901828D938D0197F1F7B1
:10074000A389B4898C919589892B8C93ACCF868DA4
:100750008160868FF1CF90E0FC01E859FF4F249132
:10076000FC01E255FF4F3491FC01E656FF4FE49146
:10077000EE23C9F0222339F0233001F1A8F421300F
:1007800019F1223029F1F0E0EE0FFF1FE057FF4F83
:10079000A591B4918FB7F894EC91611126C0309572
:1007A0003E233C938FBF08952730A9F02830C9F02D
:1007B000243049F7809180008F7D03C080918000B4
:1007C0008F7780938000DFCF84B58F7784BDDBCFB8
:1007D00084B58F7DFBCF8091B0008F778093B00080
:1007E000D2CF8091B0008F7DF9CF3E2BDACF0F931F
:1007F0001F93CF93DF93109288011092870188EEA8
:1008000093E0A0E0B0E08093890190938A01A093E7
:100810008B01B0938C0124E031E03093860120936A
:10082000850125EC30E0309392012093910124EC76
:1008300030E0309394012093930120EC30E030932A
:1008400096012093950121EC30E03093980120939C
:10085000970122EC30E030939A012093990126EC25
:1008600030E030939C0120939B0110929E011092E6
:100870009F011092A0011092A101109225021092E6
:1008800024028093260290932702A0932802B0931B
:10089000290286E191E09093230280932202109234
:1008A00039021092380210923B0210923A021092D2
:1008B0003D0210923C0210923F0210923E02609163
:1008C00040026E7F6D7F609340026695617081E0AB
:1008D000682783E00E94AB0341EB50E0FA0164918A
:1008E0008DE990E0FC012491222399F030E0220F61
:1008F000331FF901EA57FF4FA591B491F901E05771
:10090000FF4F259134912FB7F8943C91632B6C9352
:100910002FBFFA01449140933202FC018491E82FE9
:10092000F0E0EE0FFF1FE057FF4F859194919093F9
:1009300034028093330200EB10E0F8012491CCE9FB
:10094000D0E0FE0184918823C9F090E0880F991FC0
:10095000FC01EA57FF4FA591B491FC01E057FF4F0E
:10096000459154913FB7F8949C91822F809598239C
:100970009C93FA019081892380833FBF809140023C
:1009800081FD04C061E082E00E94AB0382E08093BD
:100990002E02F801049100932F02FE01C491EC2F66
:1009A000F0E0EE0FFF1FE458FF4F85919491909374
:1009B000310280933002DF91CF911F910F91089502
:1009C000789484B5826084BD84B5816084BD85B52A
:1009D000826085BD85B5816085BD80916E00816036
:1009E00080936E00109281008091810082608093DC
:1009F00081008091810081608093810080918000DE
:100A00008160809380008091B10084608093B10008
:100A10008091B00081608093B00080917A00846002
:100A200080937A0080917A00826080937A0080912E
:100A30007A00816080937A0080917A008068809348
:100A40007A001092C100E0919501F091960182E048
:100A50008083E0919101F09192011082E0919301E5
:100A6000F09194018FEC808310929D01E0919901A7
:100A7000F0919A0186E08083E0919701F0919801CE
:100A8000808180618083E0919701F091980180815D
:100A900088608083E0919701F0919801808180685F
:100AA0008083E0919701F091980180818F7D808310
:100AB00010923D0210923C0210923B0210923A02B8
:100AC00010923902109238028DE991E090933F0222
:100AD00080933E0290912E02963108F047C02DEB94
:100AE00030E030933902209338022BE931E0309323
:100AF0003B0220933A022CE231E030933D022093F6
:100B00003C022091680084E0983048F031E09E304B
:100B100008F430E081E001C0880F3A95EAF7822BB3
:100B2000809368002DE630E0983050F02BE630E0FE
:100B30009E3030F02CE630E0963110F030E020E0CE
:100B40003093360220933502292F30E0983008F098
:100B50009CC081E001C0880F9A95EAF78093370224
:100B600080913E0290913F020197F1F780913C0203
:100B700090913D02892B49F1E0917A01F0917B013E
:100B800022E0E232F20709F1309739F0A389B48903
:100B90009C918589809589238C93809140028E7FDA
:100BA00080934002109279011092780182E292E0E3
:100BB00090937B0180937A01E0913502F0913602A7
:100BC000808190913702892B808367E271E082E215
:100BD00092E00E947D020E948D004B015C0188EE34
:100BE000C82E83E0D82EE12CF12C0E948D006819CC
:100BF00079098A099B09683E734081059105A8F32C
:100C000081E0C81AD108E108F10828EE820E23E03D
:100C1000921EA11CB11CC114D104E104F10429F7F6
:100C2000C0E0D0E082E292E00E943402892B79F0A9
:100C300064E371E085E891E00E947D0282E292E047
:100C40000E944A02682F85E891E00E94520185E8DF
:100C500091E00E941001892B79F06EE271E085E845
:100C600091E00E947D0285E891E00E94EE00682FED
:100C700082E292E00E94D8012097A1F20E941C011A
:100C8000882381F20E940000CDCF9E3040F428508E
:100C9000310981E001C0880F2A95EAF75FCF2E5015
:100CA0003109F7CF86E191E09093230280932202ED
:100CB00080917A0190917B018252924071F4E0918F
:100CC0003502F09136029081809137028095892318
:100CD000808310927B0110927A010895EE0FFF1F1E
:100CE0000590F491E02D099410E0C2E6D0E004C034
:100CF000FE010E946E062196C336D107C9F7F8940B
:100D0000FFCF000000005201B200DF009F01100180
:100D1000EE00020100000000D801B2006B02D70112
:100D200034024A02BF010D0A0041542B52535400B1
:0A0D3000E6ACB8E6ACB8E6ACB800DB
:107E0000112484B714BE81FFF0D085E080938100F7
:107E100082E08093C00088E18093C10086E0809377
:107E2000C20080E18093C4008EE0C9D0259A86E02C
:107E300020E33CEF91E0309385002093840096BBD3
:107E4000B09BFECF1D9AA8958150A9F7CC24DD24C4
:107E500088248394B5E0AB2EA1E19A2EF3E0BF2EE7
:107E6000A2D0813461F49FD0082FAFD0023811F036
:107E7000013811F484E001C083E08DD089C08234E0
:107E800011F484E103C0853419F485E0A6D080C0E4
:107E9000853579F488D0E82EFF2485D0082F10E0AE
:107EA000102F00270E291F29000F111F8ED06801E7
:107EB0006FC0863521F484E090D080E0DECF843638
:107EC00009F040C070D06FD0082F6DD080E0C81688
:107ED00080E7D80618F4F601B7BEE895C0E0D1E017
:107EE00062D089930C17E1F7F0E0CF16F0E7DF06D8
:107EF00018F0F601B7BEE89568D007B600FCFDCFD4
:107F0000A601A0E0B1E02C9130E011968C91119780
:107F100090E0982F8827822B932B1296FA010C0160
:107F200087BEE89511244E5F5F4FF1E0A038BF0790
:107F300051F7F601A7BEE89507B600FCFDCF97BE46
:107F4000E89526C08437B1F42ED02DD0F82E2BD052
:107F50003CD0F601EF2C8F010F5F1F4F84911BD097
:107F6000EA94F801C1F70894C11CD11CFA94CF0C13
:107F7000D11C0EC0853739F428D08EE10CD085E9AC
:107F80000AD08FE07ACF813511F488E018D01DD067
:107F900080E101D065CF982F8091C00085FFFCCF94
:107FA0009093C60008958091C00087FFFCCF809118
:107FB000C00084FD01C0A8958091C6000895E0E648
:107FC000F0E098E1908380830895EDDF803219F02E
:107FD00088E0F5DFFFCF84E1DECF1F93182FE3DFCA
:107FE0001150E9F7F2DF1F91089580E0E8DFEE27F6
:047FF000FF270994CA
:027FFE00040479
:00000001FF
